:020000040000FA
:060000000A128A1110280B
:10000800FE00030EF0000A08F100831203137F08B4
:10001800F2000A128A114F2B0A128A11132883132D
:100028005B30FD000330FE008730FF004A3084005B
:100038000A128A1178230A128A11DB01DC01DD0118
:10004800DE01DF01E001E101E201F701F801F90158
:1000580083010A128A11412A831203133308F60016
:100068003208F5006430F3000030F4000A128A11F7
:10007800BB220A128A11730883120313A40074089E
:10008800A5000030A51BFF30A600A70001300A120A
:100098008A1109210A128A11831203132708DE0024
:1000A8002608DD002508DC002408DB005E08F600D1
:1000B8005D08F5005C08F4005B08F3000A128A1179
:1000C800C5210A128A117308FF007F0883120313DF
:1000D800E1006108B400B5013408F3003508F40004
:1000E8009C30F500FF30F6000A128A1124230A1208
:1000F8008A118312031332087307B20033080318F6
:10010800330A7407B3003308F6003208F5000A30E2
:10011800F3000030F4000A128A11BB220A128A1175
:10012800730883120313A4007408A5000030A51BEC
:10013800FF30A600A70001300A128A1109210A120D
:100148008A11831203132708DE002608DD0025081C
:10015800DC002408DB005E08F6005D08F5005C089A
:10016800F4005B08F3000A128A11C5210A128A11E9
:100178007308FF007F0883120313E0006008B400CF
:10018800B5013408F3003508F400F630F500FF3007
:10019800F6000A128A1124230A128A118312031301
:1001A80032087307B20033080318330A7407B30020
:1001B8003208A4003308A5000030A51BFF30A600B4
:1001C800A70001300A128A1109210A128A11831222
:1001D80003132708DE002608DD002508DC002408B4
:1001E800DB005E08F6005D08F5005C08F4005B08BB
:1001F800F3000A128A11C5210A128A117308FF0036
:100208007F0883120313DF00080083120313AC0076
:100218002C080319102911292529A71F1429152984
:1002280025292409AE002509AF002609B0002709B1
:10023800B100AE0A0319AF0A0319B00A0319B10ACB
:100248002D292708B1002608B0002508AF0024088A
:10025800AE002708260425042404031D3429352963
:100268003E290030A7000030A6000030A50000306D
:10027800A400C4299630FF007F08AD005029013042
:10028800FF007F08AD0701300310B10CB00CAF0CB4
:10029800AE0CFF3E031D4829FE303105031D5529CC
:1002A8005629432972290130FF007F08AD07013024
:1002B800AE07003003180130AF07003003180130D3
:1002C800B007003003180130B10701300310B10C3A
:1002D800B00CAF0CAE0CFF3E031D6A29FF30310590
:1002E800031D77297829572984290130AD02013067
:1002F800A8000310AE0DAF0DB00DB10DA80B7D29F0
:10030800B01B872988298E2902302D0203188D29D0
:100318008E2979292D18912992299A29FF30AE051D
:10032800FF30AF057F30B005FF30B1050310AD0CCD
:100338002D08A800A901AA01AB0118300310A80DC7
:10034800A90DAA0DAB0DFF3E031DA2292808AE0476
:100358002908AF042A08B0042B08B1042C08031993
:10036800B629B729BC29A71FBA29BB29BC29B117A7
:100378003108A7003008A6002F08A5002E08A40001
:1003880008000310750D760DFF007F088312031314
:10039800A5002508031DD129D229DB290030F60044
:1003A8000030F5000030F4000030F300402A7308F4
:1003B800A0007408A1007508A2007608A3001F30E9
:1003C8000310A30CA20CA10CA00CFF3E031DE429F2
:1003D8002008FF007F08A400F517FF30F305FF3061
:1003E800F405FF30F5050030F6059630A502A51F87
:1003F800FE29FF29192A2508803A973E0318052A5D
:10040800062A072AD22901300310F60CF50CF40C41
:10041800F30CFF3E031D082A0130FF007F08A507E3
:10042800031D172A182A072A302A20302502031C00
:100438001E2A1F2A2B2AD2290130A0000310F30DEF
:10044800F40DF50DF60DA00B222A0130A5022508A2
:10045800031D2F2A302A202A24080319342A352A72
:10046800402AF309F409F509F609F30A0319F40A0D
:100478000319F50A0319F60A0800831603130F1265
:100488008F160F1701148110011581128111A830E0
:100498008B00F63083120313810083160313811334
:1004A80095171517961716178316031788018901CC
:1004B800F8308316031385008701880189018312A8
:1004C80003138501860187018801890105143A30E3
:1004D80084004A30B6000408B7001030B800360867
:1004E800840083130008B900B60A37088400390865
:1004F8008000B70AB80B732A5A03031D842A852A79
:10050800802ADA010708B600B7013608B2003708B2
:10051800B3000A128A1130200A128A1183120313B7
:100528008801051C982A992AA22A60083A3E840064
:1005380083130008880002308500802A851CA52ABC
:10054800A62AAF2A5F083A3E840083130008880071
:1005580004308500802A61083A3E8400831300082D
:10056800880001308500802A0A128A111028831217
:100578000313A101F41FC12AC22AC92AF309F409E5
:10058800F30A0319F40AA101A10AF61FCC2ACD2AFD
:10059800D62AF509F609F50A0319F60A0130FF000B
:1005A8007F08A106A201A301730874040319DD2AB8
:1005B800DE2A152BA001A00AEC2A01300310F30D46
:1005C800F40DFF3E031DE22A0130FF007F08A0075B
:1005D800F41FEF2AF02AE12A01300310A20DA30D1F
:1005E800FF3E031DF12A74087602031DFD2A7308D5
:1005F8007502031C002B012B082B7308F5027408E5
:10060800031CF603F602221401300310F40CF30C59
:10061800FF3E031D092B0130A002031D142B152BCF
:10062800F02A21080319192B1A2B1F2BA209A30939
:10063800A20A0319A30A2308F4002208F3000800F9
:1006480083120313A001A101731C2B2B2C2B342B19
:10065800750883120313A0070318A10A7608A107D7
:1006680001300310F50DF60DFF3E031D352B01304B
:100678000310F40CF30CFF3E031D3C2B73087404A9
:10068800031D472B482B282B831203132108F40042
:100698002008F30008000B1D522B532B582BDA01AE
:1006A800DA0AF63081000B110B1C5B2B5C2B6B2BD1
:1006B800061B5F2B602B642B0130FF007F08870728
:1006C800861B672B682B6A2B013087020B10720878
:1006D800FF0071088A00700E8300FE0E7E0E09006E
:1006E8007E088A007F0882000A128A1174230A127F
:1006F8008A118000840A04087D0603190034FF0A61
:100708000319FE0A782B3F3406345B344F346634C1
:100718006D347D3407347F34673477347C3439342E
:080728005E34793471340134B0
:04400E00D530FF3F6B
:00000001FF
