:020000040000FA
:060000000A128A1110280B
:10000800FE00030EF1000A08F200831203137F08B2
:10001800F3000A128A11F02A0A128A11132883138C
:100028006130FD000330FE00A830FF00503084002E
:100038000A128A1199230A128A11E101E201E301E5
:10004800E401E501E601E701E801F601F701F8013D
:10005800F90183010A128A11A22A83120313BA0032
:100068003A08B600B7013608A2003708A300643082
:10007800A0000030A1000A128A1139220A128A113E
:10008800831203132008A8002108A9000030A91B27
:10009800FF30AA00AB0001300A128A1101210A12AE
:1000A8008A11831203132B08E4002A08E3002908A5
:1000B800E2002808E1006408A3006308A2006208BF
:1000C800A1006108A0000A128A11BD210A128A1132
:1000D800831203132008FF007F08E8009C30FF000C
:1000E8007F08F40068080A128A117E230A128A110E
:1000F800831203133A07FF007F08BA003A08B600D4
:10010800B7013608A2003708A3000A30A000003063
:10011800A1000A128A1139220A128A1183120313C2
:100128002008A8002108A9000030A91BFF30AA0058
:10013800AB0001300A128A1101210A128A118312B6
:1001480003132B08E4002A08E3002908E200280822
:10015800E1006408A3006308A2006208A100610826
:10016800A0000A128A11BD210A128A1183120313F0
:100178002008FF007F08E700F630FF007F08F40042
:1001880067080A128A117E230A128A11831203133E
:100198003A07FF007F08BA003A08B600B701B8016D
:1001A800B9013908AB003808AA003708A900360891
:1001B800A80000300A128A1101210A128A1183123A
:1001C80003132B08E4002A08E3002908E2002808A2
:1001D800E1006408A3006308A2006208A1006108A6
:1001E800A0000A128A11BD210A128A118312031370
:1001F8002008FF007F08E600080083120313B00000
:1002080030080319082909291D29AB1F0C290D29B4
:100218001D292809B2002909B3002A09B4002B09AD
:10022800B500B20A0319B30A0319B40A0319B50AC7
:1002380025292B08B5002A08B4002908B300280886
:10024800B2002B082A0429042804031D2C292D296F
:1002580036290030AB000030AA000030A900003079
:10026800A800BC299630FF007F08B100482901305A
:10027800FF007F08B10701300310B50CB40CB30CB4
:10028800B20CFF3E031D4029FE303505031D4D29E4
:100298004E293B296A290130FF007F08B107013048
:1002A800B207003003180130B307003003180130DB
:1002B800B407003003180130B50701300310B50C3E
:1002C800B40CB30CB20CFF3E031D6229FF30350598
:1002D800031D6F2970294F297C290130B102013093
:1002E800AC000310B20DB30DB40DB50DAC0B7529F0
:1002F800B41B7F29802986290230310203188529F9
:1003080086297129311889298A299229FF30B2054D
:10031800FF30B3057F30B405FF30B5050310B10CCD
:100328003108AC00AD01AE01AF0118300310AC0DBF
:10033800AD0DAE0DAF0DFF3E031D9A292C08B2047A
:100348002D08B3042E08B4042F08B5043008031987
:10035800AE29AF29B429AB1FB229B329B429B517DF
:100368003508AB003408AA003308A9003208A800F1
:100378000800031083120313220D230DFF007F08CA
:10038800F5007508031DC929CA29D3290030A3001F
:100398000030A2000030A1000030A000382A200858
:1003A800A4002108A5002208A6002308A7001F30E2
:1003B8000310A70CA60CA50CA40CFF3E031DDC29FA
:1003C8002408FF007F08F400A217FF30A005FF30C3
:1003D800A105FF30A2050030A3059630F502F51FF0
:1003E800F629F729112A7508803A973E0318FD293E
:1003F800FE29FF29CA2901300310A30CA20CA10C65
:10040800A00CFF3E031D002A0130FF007F08F507FE
:10041800031D0F2A102AFF29282A20307502031CE1
:10042800162A172A232ACA290130A4000310A00D6E
:10043800A10DA20DA30DA40B1A2A0130F50275080F
:10044800031D272A282A182A740803192C2A2D2A5A
:10045800382AA009A109A209A309A00A0319A10A17
:100468000319A20A0319A30A080083120313A5019A
:10047800A11F3F2A402A472AA009A109A00A031957
:10048800A10AA501A50AA31F4A2A4B2A542AA20990
:10049800A309A20A0319A30A0130FF007F08A506D1
:1004A800A601A7012008210403195B2A5C2A932AC4
:1004B800A401A40A6A2A01300310A00DA10DFF3E71
:1004C800031D602A0130FF007F08A407A11F6D2AC1
:1004D8006E2A5F2A01300310A60DA70DFF3E031DEB
:1004E8006F2A21082302031D7B2A20082202031CED
:1004F8007E2A7F2A862A2008A2022108031CA30339
:10050800A302261401300310A10CA00CFF3E031D0A
:10051800872A0130A402031D922A932A6E2A2508ED
:100528000319972A982A9D2AA609A709A60A031932
:10053800A70A2708A1002608A000080083160313AD
:100548000F128F160F1701148110011581128111D6
:10055800A8308B00F630831203138100831603132F
:100568000C17831203130C13831603139F131F1204
:100578001F12831203131F139F171F140F308312A8
:100588000313CF00CF0BC62AC92A831203139F1463
:100598008316031381139517151796171617183016
:1005A8008316031788008901F83083160313850022
:1005B8008701880189018312031385018601870158
:1005C8008801890105140A128A113A230A128A112C
:1005D800E72A0A128A1110280C1FF32AF42A152B6D
:1005E8000C131F0CF000700C0F39033A031DFD2A81
:1005F800FE2A052B1E0887001F08C33910389F00E4
:100608000D2B1E08FF007F08E5001F08C3390C38B2
:100618009F001030F000F00B0F2B00008312031323
:100628009F140B1D182B192B1E2BE001E00AF63026
:1006380081000B110B1C212B222B312B061B252B88
:10064800262B2A2B0130FF007F088707861B2D2BBE
:100658002E2B302B013087020B107308FF00720815
:100668008A00710E8300FE0E7E0E09003F30840062
:10067800503083120313BB000408BC001030BD00C7
:100688003B08840083130008BE00BB0A3C088400B2
:100698003E088000BC0ABD0B442BE00165080A1225
:1006A8008A1131200A128A11831203138801051C4A
:1006B8005E2B5F2B682B67083F3E8400831300087E
:1006C8008800023085007D2B851C6B2B6C2B752BCD
:1006D80066083F3E840083130008880004308500C4
:1006E8007D2B68083F3E8400831300088800013092
:1006F8008500080083120313A100A001211C852B8B
:10070800862B8A2B7408FF007F08A0070310F40DBE
:100718000310A10C2108031D922B932B822B200878
:1007280008007E088A007F0882000A128A11952331
:100738000A128A118000840A04087D06031900340D
:10074800FF0A0319FE0A992B3F3406345B344F34F1
:1007580066346D347D3407347F34673477347C34C1
:0A07680039345E3479347134013401
:04400E00D530FF3F6B
:00000001FF
