:020000040000FA
:060000000A128A1110280B
:10000800FE00030EF0000A08F100831203137F08B4
:10001800F2000A128A111F2B0A128A11132883135D
:100028005B30FD000330FE006C30FF004A30840076
:100038000A128A115D230A128A11DB01DC01DD0133
:10004800DE01DF01E001E101E201F801F901FA0155
:1000580083010A128A11E52AF7007708831203132D
:10006800B200B3013208F5003308F6006430F3003B
:100078000030F4000A128A1138220A128A11730811
:1000880083120313A4007408A5000030A51BFF30D9
:10009800A600A70001300A128A1100210A128A114B
:1000A800831203132708DE002608DD002508DC007C
:1000B8002408DB005E08F6005D08F5005C08F40023
:1000C8005B08F3000A128A11BC210A128A1173080C
:1000D800FF007F0883120313E1009C30FF007F08B4
:1000E800F30061080A128A1144230A128A11770759
:1000F800FF007F08F700770883120313B200B301EB
:100108003208F5003308F6000A30F3000030F40036
:100118000A128A1138220A128A11730883120313E9
:10012800A4007408A5000030A51BFF30A600A70096
:1001380001300A128A1100210A128A11831203134C
:100148002708DE002608DD002508DC002408DB007F
:100158005E08F6005D08F5005C08F4005B08F30033
:100168000A128A11BC210A128A117308FF007F083B
:1001780083120313E000F630FF007F08F3006008E5
:100188000A128A1144230A128A117707FF007F088E
:10019800F700770883120313B200B301B401B50165
:1001A8003508A7003408A6003308A5003208A400C3
:1001B80000300A128A1100210A128A1183120313CD
:1001C8002708DE002608DD002508DC002408DB00FF
:1001D8005E08F6005D08F5005C08F4005B08F300B3
:1001E8000A128A11BC210A128A117308FF007F08BB
:1001F80083120313DF00080083120313AC002C08DA
:100208000319072908291C29A71F0B290C291C29B0
:100218002409AE002509AF002609B0002709B1005E
:10022800AE0A0319AF0A0319B00A0319B10A24293F
:100238002708B1002608B0002508AF002408AE0042
:100248002708260425042404031D2B292C293529D5
:100258000030A7000030A6000030A5000030A40040
:10026800BB299630FF007F08AD0047290130FF0009
:100278007F08AD0701300310B10CB00CAF0CAE0C09
:10028800FF3E031D3F29FE303105031D4C294D2932
:100298003A2969290130FF007F08AD070130AE0710
:1002A800003003180130AF07003003180130B007E1
:1002B800003003180130B10701300310B10CB00C45
:1002C800AF0CAE0CFF3E031D6129FF303105031D45
:1002D8006E296F294E297B290130AD020130A80013
:1002E8000310AE0DAF0DB00DB10DA80B7429B01BE6
:1002F8007E297F29852902302D0203188429852922
:1003080070292D18882989299129FF30AE05FF30D9
:10031800AF057F30B005FF30B1050310AD0C2D08D7
:10032800A800A901AA01AB0118300310A80DA90D56
:10033800AA0DAB0DFF3E031D99292808AE04290814
:10034800AF042A08B0042B08B1042C080319AD29FE
:10035800AE29B329A71FB129B229B329B11731088A
:10036800A7003008A6002F08A5002E08A400080042
:100378000310750D760DFF007F0883120313A50087
:100388002508031DC829C929D2290030F6000030E4
:10039800F5000030F4000030F300372A7308A0009D
:1003A8007408A1007508A2007608A3001F30031086
:1003B800A30CA20CA10CA00CFF3E031DDB292008F6
:1003C800FF007F08A400F517FF30F305FF30F405A0
:1003D800FF30F5050030F6059630A502A51FF52972
:1003E800F629102A2508803A973E0318FC29FD298A
:1003F800FE29C92901300310F60CF50CF40CF30C96
:10040800FF3E031DFF290130FF007F08A507031DDC
:100418000E2A0F2AFE29272A20302502031C152A16
:10042800162A222AC9290130A0000310F30DF40D61
:10043800F50DF60DA00B192A0130A5022508031D9C
:10044800262A272A172A240803192B2A2C2A372A6E
:10045800F309F409F509F609F30A0319F40A03196B
:10046800F50A0319F60A080083120313A101F41F01
:100478003E2A3F2A462AF309F409F30A0319F40A23
:10048800A101A10AF61F492A4A2A532AF509F609A1
:10049800F50A0319F60A0130FF007F08A106A20138
:1004A800A3017308740403195A2A5B2A922AA0012B
:1004B800A00A692A01300310F30DF40DFF3E031D55
:1004C8005F2A0130FF007F08A007F41F6C2A6D2AFD
:1004D8005E2A01300310A20DA30DFF3E031D6E2AF4
:1004E80074087602031D7A2A73087502031C7D2A94
:1004F8007E2A852A7308F5027408031CF603F6029F
:10050800221401300310F40CF30CFF3E031D862A5D
:100518000130A002031D912A922A6D2A210803198D
:10052800962A972A9C2AA209A309A20A0319A30AB0
:100538002308F4002208F30008003A3084004A3007
:1005480083120313B6000408B7001030B800360849
:10055800840083130008B900B60A370884003908F4
:100568008000B70AB80BAB2ADA0107080A128A1109
:1005780030200A128A11831203138801051CC52A28
:10058800C62ACF2A60083A3E8400831300088800F0
:1005980002308500E42A851CD22AD32ADC2A5F0887
:1005A8003A3E840083130008880004308500E42A5A
:1005B80061083A3E840083130008880001308500F2
:1005C8000800831603130F128F160F1701148110DA
:1005D800011581128111A8308B00F63083120313A4
:1005E800810083160313811395171517961716178D
:1005F8008316031788018901F830831603138500D1
:100608008701880189018312031385018601870107
:10061800880189010514831203135A03031D152B3E
:10062800162B0F2B0A128A11A1220A128A110F2BDC
:100638000A128A1110280B1D222B232B282BDA01D2
:10064800DA0AF63081000B110B1C2B2B2C2B3B2BC1
:10065800061B2F2B302B342B0130FF007F08870718
:10066800861B372B382B3A2B013087020B10720868
:10067800FF0071088A00700E8300FE0E7E0E0900CE
:10068800F500F401751C492B4A2B4E2B7308FF000B
:100698007F08F4070310F30D0310F50C7508031D0C
:1006A800562B572B462B740808007E088A007F08B3
:1006B80082000A128A1159230A128A118000840AB8
:1006C80004087D0603190034FF0A0319FE0A5D2B8E
:1006D8003F3406345B344F3466346D347D3407342C
:1006E8007F34673477347C3439345E347934713408
:0206F8000134CB
:04400E00D530FF3F6B
:00000001FF
