:020000040000FA
:060000000A128A110C280F
:10000800FE00030EF8000A08F9000A128A11CC292A
:100018000A128A110F28F001F101F201F301F4012B
:10002800F50183120313A701A80183010A128A119B
:100038001D28831603130F168F160F1798161812FC
:10004800831203139817E8308B00181683160313CE
:100058008C16831203138C120C3083160313990029
:100068008316031788018901831603138601880103
:10007800850183120313850186018701880189019F
:100088000A128A1133220A128A1174037504031D95
:100098004E284F286A288E300A128A1107220A121F
:1000A8008A11B8300A128A1107220A128A11F40139
:1000B800F5018E300A128A1107220A128A118E302F
:1000C8000A128A1107220A128A1144280230740679
:1000D8007504031D70287128AA288E300A128A1107
:1000E80007220A128A1101300A128A1107220A12FB
:1000F8008A11F201F301F001F1019528023083120F
:100108000313A6000430A500B930A400A40B8A2864
:10011800A50B8A28A60B8A28912870088312031336
:1001280086007208730403199A289B288228F40110
:10013800F5018E300A128A1107220A128A118E30AE
:100148000A128A1107220A128A11442803307406F7
:100158007504031DB028B128EA288E300A128A11C6
:1001680007220A128A1128300A128A1107220A1253
:100178008A11F201F301F001F101D528023083124E
:100188000313A6000430A500B930A400A40BCA28A4
:10019800A50BCA28A60BCA28D128700883120313F6
:1001A8008800720873040319DA28DB28C228F401CE
:1001B800F5018E300A128A1107220A128A118E302E
:1001C8000A128A1107220A128A11442849280A1297
:0401D8008A110C2854
:1002000001308A000408840A8207003449346E34BD
:1002100067347234653473346134203475346E3429
:10022000203463346134723461346334743465343B
:100230007234203470346134723461342034653463
:100240006C342034703475346534723474346F34E3
:10025000203442343A342034003449346E34673424
:100260007234653473346134203475346E34203420
:100270006334613472346134633474346534723499
:1002800020347034613472346134203465346C3419
:100290002034703475346534723474346F342034DF
:1002A00044343A342034003428343134293420346E
:1002B00044346534733470346C3465346734613479
:1002C0007234203463346134643465346E346134A0
:1002D00020346434653420346334613472346134DE
:1002E00063347434653472346534733420340D34BB
:1002F00000345134753465342034613463346334EC
:1003000069346F346E342034643465347334653446
:100310006134203465346A34633475347434613440
:1003200072343F3420340D340034283432342934CC
:100330002034433461346D3462346934613472344E
:10034000203450344F3452345434423420340D3439
:1003500000342834333429342034433461346D3448
:100360006234693461347234203450344F3452343E
:100370005434443420340D34003448346F346C34F5
:10038000613420346134203454346F3464346F3435
:10039000733420340D340034831203138C1ED1299E
:1003A000D229002A8C1205141A08F600F7017608E3
:1003B000F0007708F1000130F2000030F300313036
:1003C0001A06031DE429E529EA290130F40000306A
:1003D000F500002A32301A06031DEF29F029F5290D
:1003E0000230F4000030F500002A33301A06031DF5
:1003F000FA29FB29002A0330F4000030F500002A16
:1004000079088A00780E8300FE0E7E0E09008312A2
:100410000313A300A201232A2208230784000A123F
:100420008A1100210A128A1199000130FF007F0809
:10043000A207343083120313A100F130A000A00BF7
:100440001F2AA10B1F2A83120313220823078400EB
:100450000A128A1100210A128A11003A031D312A58
:10046000322A0C2A080074300A128A1107220A1252
:100470008A114F300A128A1107220A128A1190300B
:100480000A128A1107220A128A11A4300A128A114A
:0804900007220A128A1108007C
:04400E00D430FF3F6C
:00000001FF
