:020000040000FA
:060000000A128A1110280B
:10000800FE00030E83120313C3000A08C4007F080E
:10001800C5000A128A11B12A0A128A1113280A1273
:100028008A1125250A128A11D200C601C701C80102
:10003800C901CA01CB01CC01CD01CE01CF01D0014C
:10004800D10183010A128A11D12C831203132308C8
:100058008039FF007F08B0002308A8002807FF00A8
:100068007F08B200A21F39283A283B2832143208E8
:1000780003193F2840285028320A031D44284528E0
:100088004D280030A3000030A2000030A10000304D
:10009800A000A217A30158280030A3000030A20036
:1000A8000030A1000030A00027088039FF007F0839
:1000B800B100310830060319622863286428301714
:1000C8002708A8002807FF007F08B100A61F6D2891
:1000D8006E286F283114310803197328742884286E
:1000E800310A031D7828792881280030A7000030BC
:1000F800A6000030A5000030A400A617A7018C2890
:100108000030A7000030A6000030A5000030A40091
:1001180032083102031891289228D628301F9528D2
:1001280096289A288030FF007F08B0063208FF0022
:100138007F08B3003108FF007F08B2003308FF00D2
:100148007F08B1002008FF007F08B3002408FF00E3
:100158007F08A0003308FF007F08A4002108FF00E3
:100168007F08B3002508FF007F08A1003308FF00BF
:100178007F08A5002208FF007F08B3002608FF00BB
:100188007F08A2003308FF007F08A6002308FF00AD
:100198007F08B3002708FF007F08A3003308FF008B
:1001A8007F08A700B3013108A800A9012908AB00FE
:1001B80032082802AA00031CAB032B08803AFF0070
:1001C80080307F02031DEA281A302A02031CED281A
:1001D800EE282B2983120313230822042104200468
:1001E800031DF728F9280130FA280030FF007F089E
:1001F800B3000030A3000030A2000030A10000309E
:10020800A0003108FF007F08B2003329331C0D29F4
:100218000E2917293308A8000310280C0138FF00FD
:100228007F08B30019290310B30C201C1C291D29B1
:100238001E29B3170130A800230DA30CA20CA10C92
:10024800A00CA80B20290130FF007F08B2078312F9
:10025800031331083202031C322933290A29301BBF
:100268003629372982293208031D3B293C2945298B
:100278000030A3000030A2000030A1000030A00030
:10028800B02A2408A007250803110318013E031902
:100298004E29A107260803110318013E0319552901
:1002A800A207270803110318013E03195C29A307B5
:1002B800231C5F296029362A331C632964296D2988
:1002C8003308A8000310280C0138FF007F08B3008A
:1002D8006F290310B30C201C722973297429B317D2
:1002E8000130A800230DA30CA20CA10CA00CA80B94
:1002F80076290130FF007F08B207362A2308803AA2
:10030800FF002708803A7F02031D9429260822024D
:10031800031D942925082102031D9429240820027D
:10032800031897299829F029FF30A800FF30A90061
:10033800FF30AA00FF30AB002408AC002508AD0050
:100348002608AE002708AF002008AC022108031CCD
:10035800210FAF29B029AD022208031C220FB529AD
:10036800B629AE022308031C230FBB29BC29AF0200
:100378002C08A8072D0803182D0FC329C429A9077D
:100388002E0803182E0FC929CA29AA072F080318EF
:100398002F0AAB072B08A3002A08A2002908A100EE
:1003A8002808A0008030FF007F08B006B309B30A10
:1003B8003308031DE029E129FE290130A007003098
:1003C80003180130A107003003180130A2070030DC
:1003D80003180130A307FE292408A0022508031CDE
:1003E800250FA1022608031C260FA2022708031CBA
:1003F800270FA3022308220421042004031D052A31
:10040800062A322A3308031D0A2A0B2A322A003008
:10041800A3000030A2000030A1000030A000B02AE4
:100428000130A8000310A00DA10DA20DA30DA80B6B
:10043800162AB31F202A212A222A2014331C252AEF
:10044800262A292A0314B30D2B2A0310B30D3208C8
:1004580003192F2A302A322A0130B202A21F352A64
:10046800362A142AB101B31F3A2A3B2A492A3308EB
:100478007F390319402A412A442AB101B10A492A7D
:10048800201C472A482A492A412A310803194D2A9B
:100498004E2A822A0130A007003003180130A10734
:1004A800003003180130A207003003180130A307F9
:1004B800231C5F2A602A822A2008A8002108A90094
:1004C8002208AA002308AB000130AC002B0DAB0CAE
:1004D800AA0CA90CA80CAC0B6A2A2B08A3002A08A2
:1004E800A2002908A1002808A000320A03197D2AC1
:1004F8007E2A822A0130FF007F08B207320A0319D8
:10050800862A872A8C2A3208031D8B2A8C2A9A2A43
:100518000030A3000030A2000030A1000030A0008D
:100528003208031D982A992A9A2AB001321C9D2A5A
:100538009E2AA02AA217A42A7F30FF007F08A205BE
:100548003208A8000310280CFF007F08A300B01F82
:10055800AE2AAF2AB02AA31708000C1FB42AB52A5E
:10056800922B0C131F0CBE003E0C0F39033A031DCF
:10057800BE2ABF2A242B1E0886000608BE000310C8
:100588003E0CBF00C001C101C2014208F30041088E
:10059800F2004008F1003F08F00001300A128A1109
:1005A8009B230A128A11730883120313A700720887
:1005B800A6007108A5007008A4004230A300FC3012
:1005C800A2003330A1003330A0000A128A1129207A
:1005D8000A128A11831203132308B7002208B600EF
:1005E8002108B5002008B4000A128A1155240A12FD
:1005F8008A1183120313340895000618042B082B5C
:100608008312031397160B2B831203139712831667
:1006180003131E0883120313BE0007300310BE0C19
:10062800FF3E031D122B3E08BF00BF0E17083F06F2
:10063800EF393F0697001F08C33910389F00882BF1
:100648001E0886000608BE0003103E0CBF00C0014D
:10065800C101C2014208F3004108F2004008F1005C
:100668003F08F00001300A128A119B230A128A11EE
:10067800730883120313A7007208A6007108A50067
:100688007008A4004230A300FB30A2000030A10093
:100698000030A0000A128A1129200A128A11831236
:1006A80003132308B7002208B6002108B500200864
:1006B800B4000A128A1155240A128A1183120313EC
:1006C80034089B000618692B6D2B831203139D16A3
:1006D800702B831203139D12831603131E088312B3
:1006E8000313BE0007300310BE0CFF3E031D772B1B
:1006F8003E08BF00BF0E1D083F06EF393F069D00AC
:100708001F08C3390C389F00203083120313BE0022
:10071800BE0B8C2B0000831203139F144508FF00A7
:1007280044088A00430E8300FE0E7E0E0900F8007E
:1007380078080319A02BA12BB52BF31FA42BA52BED
:10074800B52B7009FA007109FB007209FC007309E6
:10075800FD00FA0A0319FB0A0319FC0A0319FD0A2A
:10076800BD2B7308FD007208FC007108FB007008BF
:10077800FA007308720471047004031DC42BC52B9E
:10078800CE2B0030F3000030F2000030F1000030D2
:10079800F000542C9630FF007F08F900E02B013060
:1007A800FF007F08F90701300310FD0CFC0CFB0C5F
:1007B800FA0CFF3E031DD82BFE307D05031DE52BEB
:1007C800E62BD32B022C0130FF007F08F9070130FC
:1007D800FA07003003180130FB0700300318013016
:1007E800FC07003003180130FD0701300310FD0C31
:1007F800FC0CFB0CFA0CFF3E031DFA2BFF307D05A9
:10080800031D072C082CE72B142C0130F9020130AA
:10081800F4000310FA0DFB0DFC0DFD0DF40B0D2C6F
:10082800FC1B172C182C1E2C0230790203181D2CC7
:100838001E2C092C7918212C222C2A2CFF30FA0581
:10084800FF30FB057F30FC05FF30FD050310F90C78
:100858007908F400F501F601F70118300310F40DDA
:10086800F50DF60DF70DFF3E031D322C7408FA0442
:100878007508FB047608FC047708FD04780803195A
:10088800462C472C4C2CF31F4A2C4B2C4C2CFD1778
:100898007D08F3007C08F2007B08F1007A08F0007C
:1008A8000800031083120313360D370DFF007F086D
:1008B800BD003D08031D612C622C6B2C0030B70075
:1008C8000030B6000030B5000030B400D02C340839
:1008D800B8003508B9003608BA003708BB001F3021
:1008E8000310BB0CBA0CB90CB80CFF3E031D742CDA
:1008F8003808FF007F08BC00B617FF30B405FF308A
:10090800B505FF30B6050030B7059630BD02BD1FEE
:100918008E2C8F2CA92C3D08803A973E0318952CD5
:10092800962C972C622C01300310B70CB60CB50C22
:10093800B40CFF3E031D982C0130FF007F08BD0753
:10094800031DA72CA82C972CC02C20303D02031C7B
:10095800AE2CAF2CBB2C622C0130B8000310B40DA8
:10096800B50DB60DB70DB80BB22C0130BD023D0860
:10097800031DBF2CC02CB02C3C080319C42CC52C5B
:10098800D02CB409B509B609B709B40A0319B50AD0
:100998000319B60A0319B70A0800831603130F16BA
:1009A8008F160F17E8308B00F93092003F30831212
:1009B800031397051708F0390C3897001D08F0390C
:1009C8000C389D000F3095000F309B00CF309705F5
:1009D8001D129D128C1012149214121583160313F3
:1009E8000C17831203130C13831603139F131F1280
:1009F8001F12831203131F139F171F14203083160F
:100A08000313A000A00B062D0000831203139F14EC
:100A180018308316031788008901F83083160313EA
:100A280085008701880186018901831203138501E6
:100A380086018701880189010514212D0A128A116E
:040A4800102801343D
:04400E00D530FF3F6B
:00000001FF
